:020000040000FA
:10000000C80B0020650100007F010000F50F000013
:1000100000000000000000000000000000000000E0
:10002000000000000000000000000000830100004C
:1000300000000000000000008501000087010000B2
:10004000011000000B100000151000001F10000030
:100050008901000089010000291000003310000010
:100060003D100000890100004710000089010000D8
:1000700051100000890100005B10000065100000B5
:100080006F10000079100000831000008D10000038
:1000900097100000A1100000AB100000B510000088
:1000A000BF10000089010000C9100000D31000003B
:1000B000DD10000089010000E7100000F1100000D1
:1000C00000F002F800F03EF80CA030C80838241800
:1000D0002D18A246671EAB4654465D46AC4201D180
:1000E00000F030F87E460F3E0FCCB6460126334274
:1000F00000D0FB1AA246AB4633431847001F00004E
:10010000201F0000103A02D378C878C1FAD85207ED
:1001100001D330C830C101D504680C6070470000BD
:100120000023002400250026103A01D378C1FBD813
:10013000520700D330C100D50B6070471FB51FBDFB
:1001400010B510BD00F0ECF81146FFF7F7FF01F015
:1001500071FE00F004F903B4FFF7F2FF03BC01F0F5
:1001600025FD00000C480D4A002100A1814200D964
:1001700002440B4802600B4880470B480047FEE7EB
:10018000FEE7FEE7FEE7FEE7FEE700000748084956
:10019000084A094B704700000000002000000000E2
:1001A00008ED00E071140000C1000000C80100204B
:1001B000C80B0020C8030020C8030020704700229D
:1001C00003098B422CD3030A8B4211D300239C4694
:1001D0004EE003460B433CD4002243088B4231D30C
:1001E00003098B421CD3030A8B4201D394463FE0A0
:1001F000C3098B4201D3CB01C01A524183098B4200
:1002000001D38B01C01A524143098B4201D34B01E8
:10021000C01A524103098B4201D30B01C01A52414B
:10022000C3088B4201D3CB00C01A524183088B42D2
:1002300001D38B00C01A524143088B4201D34B00BB
:10024000C01A5241411A00D201465241104670472D
:100250005DE0CA0F00D04942031000D34042534032
:1002600000229C4603098B422DD3030A8B4212D3F2
:10027000FC22890112BA030A8B420CD38901921124
:100280008B4208D3890192118B4204D389013AD061
:10029000921100E08909C3098B4201D3CB01C01A36
:1002A000524183098B4201D38B01C01A5241430949
:1002B0008B4201D34B01C01A524103098B4201D337
:1002C0000B01C01A5241C3088B4201D3CB00C01AA4
:1002D000524183088B4201D38B00C01A5241D9D2BC
:1002E00043088B4201D34B00C01A5241411A00D23D
:1002F0000146634652415B10104601D34042002B39
:1003000000D54942704763465B1000D3404201B5B7
:100310000020C046C04602BD704770477047704716
:10032000754600F025F8AE46050069465346C008FC
:10033000C000854618B020B5FFF728FF60BC002735
:100340004908B6460026C0C5C0C5C0C5C0C5C0C5A1
:10035000C0C5C0C5C0C5403D49008D46704710B5F9
:100360000446C046C0462046FFF7F5FE10BD00001B
:10037000004870476801002038B500240094002828
:1003800010D0012813D002281BD003281ED0042827
:1003900021D0052824D0062824D0072824D00828D6
:1003A00027D02CE0022000F06FFC022003E00220A6
:1003B00000F06AFC032000F0A7FB002000F064FCC2
:1003C0001AE0022000F060FC0420F4E7022000F0B4
:1003D0005BFC0520EFE7022000F056FC0620EAE770
:1003E0000120EBE70320E9E7012000F0B1FB022048
:1003F000E4E7002000F0ACFB00F0C8FA009000F049
:10040000C5FA009438BD000010B586B001216A46D7
:100410001175144A0423141A1348029000206A46E6
:10042000107050709370D07010715171694600F067
:100430005DF9002000F0E8F8002000F025F9012225
:1004400003210E2000F0B6FC2146002000F0BAF88F
:100450002146002000F0F6F8002000F0EDF906B08B
:1004600010BD0000FFFF00009505000070B592B0C0
:100470000C210FA801F0B8FB03210EA801F0B4FB7A
:1004800008210CA801F0B0FB142103A801F0ACFB7B
:1004900000240094019401232246052103200294A4
:1004A00000F038FD0094019401230022062103206E
:1004B000029400F02FFD3348C16820229143C160AF
:1004C00031494B69DB08DB005B1C4B6103689343DC
:1004D0000360C36840229343C3608B69DB08DB0081
:1004E0005B1C8B61016811430160416A11434162E9
:1004F0000121082000F0F2FA0121084600F0EEFA8E
:1005000022481190224810900F940FA80A900125BC
:1005100008A80573057004760EA8099008A844740D
:100520004B20C0010D9008A8057400F077FA014631
:100530000CAA012001F0F2F90646684645740474DD
:1005400003A9012000F0D2F83146012000F03AF86A
:100550003146012000F076F8012000F06DF908A97D
:10056000012001F093F90121084601F04FF9012122
:10057000084601F01BF90121084601F035F912B0D7
:1005800070BD0000C00D0240C00C02404D140000C0
:10059000350E000010B5002000F092F801280ED1B1
:1005A000002000F031F800F0ADFF212001F0F6FC52
:1005B00003488178491C81704168491C416010BD25
:1005C000A400002000220F4B002806D001280AD0EA
:1005D00002280ED00122104670471868000C000453
:1005E00008431860F7E7186A000C00040843186213
:1005F000F1E70448403003681B0C1B040B43036005
:10060000E9E70000000C004000210D4A002806D058
:10061000012809D002280CD00121084670475069F2
:10062000400840005061F8E7506B400840005063BC
:10063000F3E7034840304269520852004261ECE758
:10064000000C004000220F4B002806D001280AD0E1
:1006500002280ED00122104670475868000C000492
:1006600008435860F7E7586A000C000408435862D2
:10067000F1E70448403043681B0C1B040B43436004
:10068000E9E70000000C00400C4B00211A1500287F
:1006900006D0012808D002280AD001210846704758
:1006A000D8681043D860F9E7D86A1043D862F5E7F4
:1006B00002484030C3681343C360EFE7000C0040BA
:1006C00001460020084A002909D0012909D0022941
:1006D00004D1054840300069C007C00F7047106959
:1006E000FAE7106BF8E70000000C0040F0B5504A44
:1006F00000230224551596157027002806D00128DE
:1007000034D0022862D001231846F0BDD068A84337
:100710000D78ED07AD0D2843D060D0684D78B0431B
:10072000ED07ED0D2843D060D0688D78B8436D0794
:100730006D0E2843D060D0680825A843CD78ED071A
:100740002D0F2843D060D0680425A8430D79ED070C
:100750006D0F2843D060D068A0434C79E407A40F04
:100760002043D060334889680160CDE7D06AA84350
:100770000D78ED07AD0D2843D062D06A4D78B043B7
:10078000ED07ED0D2843D062D06A8D78B8436D0730
:100790006D0E2843D062D06A0825A843CD78ED07B6
:1007A0002D0F2843D062D06A0425A8430D79ED07A8
:1007B0006D0F2843D062D06AA0434C79E407A40FA0
:1007C0002043D0621B48C96841609DE7184840300B
:1007D000C268AA430D78ED07AD0D2A43C260C26816
:1007E0004D78B243ED07ED0D2A43C260C2688D78A3
:1007F000BA436D076D0E2A43C260C2680825AA433A
:10080000CD78ED072D0F2A43C260C2680425AA43A4
:100810000D79ED076D0F2A43C260C268A2434C797F
:10082000E407A40F2243C2600248096981606BE7B4
:10083000000C004060000020002101220B4B00282A
:1008400006D0012808D002280AD0012108467047A6
:10085000D8681043D860F9E7D86A1043D862F5E742
:1008600002484030C3681343C360EFE7000C004008
:100870000348024981600349816070475A5A000069
:1008800000200040A5A5000003480F220168D20205
:10089000914301607047000000200040F8B50C460D
:1008A00006460025FFF7E4FF002C01D0012000E000
:1008B0000020274C276A002E46D0E1030423012E96
:1008C00028D0022E20D0032E05D0FFF7DDFF04250F
:1008D00027622846F8BD226A0A4322621D49CA6877
:1008E00010239A4303011A43CA60CA6820239A431B
:1008F00043011A43CA60A1690F221143A161216813
:1009000008229143C00002E021689943800001431E
:100910002160DDE7226A0A4322620E494039CE682F
:100920000222964342001643CE60CE6880009E436A
:100930000643CE6021690F20014321612068022116
:10094000884310432060C3E7216849084900DEE777
:1009500000200040400D0240014600200A4A0029C4
:1009600009D001290AD002290AD0032902D19069AD
:100970004006C00F7047D0680005FAE71069F7E736
:100980005069C004F5E70000002000400EB51BA12F
:10099000096802911A49002006C90192194A00917A
:1009A00011688906890F06D001291ED0022915D0A9
:1009B00003291ED11BE0D06802A94005800F085C06
:1009C000114948431149884213D111494988D368D4
:1009D0005B055B0D8B420CD10E480AE050696946FD
:1009E0008005C00F8000085803E00B4801E001209B
:1009F000C0031168C905490FC8400EBD040810188E
:100A0000F41F00000020004040420F0000366E013D
:100A1000000C1000408651010048E80100B5FFF7C6
:100A2000B5FF034909684905890FC84000BD0000AA
:100A30000020004010B50446007800F025F96078E9
:100A400000F006F8A07800F02BF8002010BD0000A0
:100A500010B50446102811D008DC012C0ED0022C51
:100A60000CD0042C0AD0082C06D107E0202C05D08D
:100A7000402C03D0802C01D0042010BDFFF7F8FEDD
:100A8000204600F043FB054A1168FF23C1334007AD
:100A90009943C00D01431160002010BD00200040AB
:100AA00010B50446012807D0022C05D0042C03D031
:100AB000082C01D0042010BDFFF7DAFE204600F01C
:100AC00025FB054A116803235B0280079943400D0B
:100AD00001431160002010BD00200040034610B506
:100AE0000020002901D0012200E000220121054C54
:100AF0009940002A226A01D00A4300E08A43226218
:100B000010BD00000020004010B50446A41E0020C7
:100B10000D4A0E49230001F00DF8050406080A0CE1
:100B20001500128906E0D28804E0928802E052881B
:100B300000E01288CB685205520DDB0ADB0213433A
:100B4000CB6010BD042010BD000C10000020004040
:100B500001460020094B0A4A002903D0012903D08D
:100B600004207047598800E0198853698905890D68
:100B70009B0A9B020B43536170470000200C10003E
:100B800000200040032300210F4A9B02002808D0C8
:100B9000012809D002280ED0032812D004210846CB
:100BA00070475069984304E05069984301239B02C1
:100BB00005E05061F3E7506998430123DB02C01858
:100BC000F7E750691843F4E70020004070B5044689
:100BD0000025FFF74DFE002C0AD0012C08D0022C76
:100BE00006D0032C04D0FFF74FFE0425284670BD25
:100BF0000449086830229043A207920E104308600F
:100C0000F4E700000020004000210E4A30230328B2
:100C100008D0042809D005280CD006280ED00421BD
:100C2000084670471069984302E0106998431030F5
:100C30001061F5E7106998432030F9E7106918430F
:100C4000F6E700000020004000210E4A3023032870
:100C500008D0042809D005280CD006280ED004217D
:100C6000084670479069984302E0906998431030B5
:100C70009061F5E7906998432030F9E7906918434F
:100C8000F6E7000000200040F8B504461F48006861
:100C90008006860F200012D0012805D0022807D038
:100CA000032C09D00420F8BD0620FFF7ADFF06E0B5
:100CB0000320FFF767FF02E00520FFF7C5FF154D92
:100CC0001348E8621448E8620427012C01D0012E81
:100CD00002D1286A3843286201212046FFF7DEFD51
:100CE0002046FFF739FE0028FAD02046FFF76EFFB6
:100CF00000213046FFF7D2FD012C02D0286AB8430C
:100D0000286200F0ADFB0020F8BD0000002000408C
:100D10005A5A000000000240A5A5000000280FD08C
:100D20001E4A116AD30219431162017803239B06FC
:100D3000002907D001292AD0022908D0032929D067
:100D400004207047516B99430123DB0603E0516B8C
:100D5000994301239B06C9185163516B01235B061C
:100D600099434378DB079B091943516341680C4859
:100D7000491E41610B49CA691202120A43041A430F
:100D8000CA61002181610121016100207047516B1E
:100D90001943E1E7516B9943DEE700000020004072
:100DA00000E000E004ED00E00148006800470000BA
:100DB0009400002070B5C506ED0E012443B2AC408E
:100DC000002B01DB174D2C608007C00EFF258540EE
:100DD0008907090E8140002B08DB9E081248B600E7
:100DE00030180668AE430E4306600AE01807000F8D
:100DF000083886080D48B6003018C669AE430E4361
:100E0000C661012A08D0002B05DB09480460BFF346
:100E10004F8FBFF36F8F70BD002BFCDB0448803811
:100E2000046070BD80E200E000E400E000ED00E05E
:100E300080E100E07047034610B50020024604E060
:100E40009C5C2018521CC0B2D2B28A42F8D310BDAA
:100E5000F0B501460B2251430020CCB20A4E0146A8
:100E600001256218D3085207520FF31860335B7BD9
:100E70002F4697403B4202D02A468A401043491CE5
:100E8000C9B20B29EDD3F0BDA400002010B5032199
:100E9000084600F027F8094C002803D1207D0121E5
:100EA000084320750221032000F01CF8002803D11C
:100EB000207D02210843207510BD0000A400002001
:100EC000820104481018026901238B409A43026191
:100ED00000207047000E024000B5012300F0FAFD2B
:100EE000002000BD034A800180184068C840C00748
:100EF000C00F7047000D024010B50549EF22086988
:100F00001040086100F0D0FB00F0D4FD10BD0000DF
:100F1000800E0240F0B504461F480F46016A1D4688
:100F20001646C2031143016200223946204600F0F2
:100F300039F8A001BA00194B00218218D2181160AB
:100F400017490124BC4040180168002E01D02143FC
:100F500000E0A143016007990029C16901D0214344
:100F600000E0A143C161016A002D01D0214300E0EE
:100F7000A143016205990029416A01D0214300E0A3
:100F8000A143416206990029C16A01D0214300E0D2
:100F9000A143C1620020F0BD00200040000C0240CF
:100FA000000D024010B50123064C8B408001001952
:100FB000C168002A01D0194300E09943C1600020B4
:100FC00010BD0000000D024010B5002A01D0012321
:100FD00000E000230122064C8A408001001981684C
:100FE000002B01D0114300E09143816010BD00004F
:100FF000000D024008B5002000900028FDD008BD7B
:1010000010B50020FFF778FF10BD10B50120FFF7E5
:1010100073FF10BD10B50220FFF76EFF10BD10B5B5
:101020000320FFF769FF10BD10B5002000F005FC9C
:1010300010BD10B5012000F000FC10BD10B500205F
:10104000C046C04610BD10B50020C046C04610BD09
:1010500010B50020C046C04610BD10B5002000F0FD
:101060004DFB10BD10B5012000F048FB10BD10B5C0
:10107000022000F043FB10BD10B50020C046C04662
:1010800010BD10B50420C046C04610BD10B50520E7
:10109000C046C04610BD10B50620C046C04610BDB3
:1010A00010B50020C046C04610BD10B5002000F0AD
:1010B0009BFC10BD10B50020C046C04610BD10B549
:1010C0000020C046C04610BD10B50020C046C04636
:1010D00010BD10B50120C046C04610BD10B500209F
:1010E000C046C04610BD10B50020FFF75DFE10BD24
:1010F00010B50020C046C04610BD10B50122032126
:10110000002000F011FE00F098FD10BD0021002825
:1011100005D001E04008491C0128FBD8084670476B
:10112000F8B504460C21FFF786FE5F4D217B2E4665
:10113000002780366035814229D12078FB2829D1CB
:101140003221032000F042FE607801281FD1A078F0
:101150006873E078A8732079E87360792874A079BF
:101160006874E079A874207AD021002841D0E8740E
:10117000607A00283FD02875A07A00283DD0687595
:10118000E07A00283BD0A875012070723772207871
:10119000FB2836D000216078012834D0002211408D
:1011A000227BCE2A31D000221140627BEC2A2ED045
:1011B000002211422DD03221032000F007FEA0783A
:1011C0006873E078A8732079E87360792874A0794F
:1011D0006874E079A874207AE874607A2875A07A37
:1011E0006875E07AA875207BF07001207072377204
:1011F000F8BDE974BCE72975BEE76975C0E7A97554
:10120000C2E70121C7E70122C9E70122CCE7012299
:10121000CFE721785A2902D0A1293ED001E0292820
:1012200013D00022A2283AD000231A40A378A32B7F
:1012300037D000231A4203D1A129D9D1A328D7D16D
:101240003221032000F0C2FDF8BD1B21204600F032
:10125000AFFCE17E227F090289188142F4D132215C
:10126000032000F0B3FDA0786873E078A8732079BC
:10127000E87360792874A0796874E079A874A07A1A
:10128000E874E07A2875207B6875607BA875A07B80
:10129000E875377201207072F8BD0122C2E70123A0
:1012A000C3E70123C6E70000A4000020F0B585B025
:1012B00000200090019061A003C8624D039102904C
:1012C000687A002872D02E465F48803E0178344606
:1012D000307D6034002904D001296AD0022967D00A
:1012E00095E05849EF222039CF7B1F26497C002802
:1012F00016D0544B203B1B7C012823D0514B203B64
:10130000197C8A09597C9B7C8C069B06240E8909D2
:101310001B0E22431943022837D0032835D076E02C
:10132000607B6B461870A07B58703807000F987070
:10133000490602D51021084300E0104098700121B1
:10134000184613E038091C0120436C462070180928
:101350000B01184360700809A070090602D510211E
:10136000084300E01040A0700121204600F067FD16
:1013700069460878C04308704878C0434870887848
:1013800086438E70002168463FE06B461A705970A4
:101390000121684600F053FD6B461878C043187071
:1013A0005878C0435870002168462EE036E000E0CF
:1013B00036E0002804D001280BD0022816D026E001
:1013C000002102A800F03BFD607B69460870A07B0D
:1013D00030E0002102A800F032FDA07B8108E07B14
:1013E000820111436A46117080080BE0002102A8B7
:1013F00000F025FDE07B0109207C020111436A46D3
:101400001170000950700121104600F018FD0D48C0
:101410000321373800F022FC0020687205B0F0BDCF
:10142000002102A800F00BFD307DFFF711FD694699
:101430000870000A48700121A5E70000FFFFFFFFC8
:10144000FFFF000024010020A000002000B5034899
:1014500000683221C0B200F061F900BD0001004017
:1014600010B5FFF793FA0149086010BD0000002095
:101470001CB50220FFF748FB01210020FFF70EFA00
:10148000FFF7EEFF0821684600F0AEFB0120694639
:101490004870034801906846FFF740FC1CBD0000FF
:1014A000FFFFFF003EB501220521022000F03CFCB9
:1014B00001220621022000F037FC002401230094C1
:1014C00001941A46042102200294FFF723FD04210F
:1014D0000220FFF7F5FC042211460220FFF7FCFC76
:1014E000012203210220FFF765FC05480121C47495
:1014F000047544758475C4750476203001723EBD50
:101500000401002010B500F0B9FA1A4CA068401C84
:10151000A060E168491CE160A279002A12D021781C
:10152000884204D3CB1C984201D2002206E08918DD
:10153000491D814206D8F02804D801220521022045
:10154000FFF742FDE279002A13D06178E068884213
:1015500004D3CB1C984201D2002206E08918491D11
:10156000814206D8F02804D8012206210220FFF784
:101570002BFD10BD440000207CB548486946C37C63
:101580000B70067D4E70457D8D70847DCC70C27D64
:101590000A71007E4871D021414A002B02D1684671
:1015A00001701170002E02D1684641705170002DFB
:1015B00002D1684681709170002C02D16846C170DA
:1015C000D17038480078002803D0002302282BD09F
:1015D00000E00123002003434CD031482F4C143845
:1015E000437920345B1CDBB24371E4789C4241D8E0
:1015F0002A4C00234371603C247D002C16D0012C22
:1016000038D16D469478AD78AC4201D9641E94709F
:10161000E4B2AC4201D2641C94702406240E2CD097
:101620000C1B6400847129E00120D4E76D46147816
:101630002D78AC4201D9641E1470E4B2AC4201D2E0
:10164000641C14702406240E03D00C1B64008471E7
:1016500000E083716D4654786D78AC4201D9641E08
:101660005470E4B2AC4215D2641C547012E0891A72
:101670004900C1717CBDC3717CBD83716D46D47856
:10168000ED78AC4201D9641ED470E4B2AC4201D210
:10169000641CD4702206120EEDD0E8E7040100208D
:1016A00058000020A000002010B50B490020FEF7D4
:1016B000C9FF012205210220FFF786FC0122062135
:1016C0000220FFF781FC054800218160C1601E20D7
:1016D00000F093FA10BD0000E1FF0000440000207C
:1016E00010B5054CA078212805D300F017FC00F0B8
:1016F00073F90020A07010BDA40000200649002846
:1017000005D0012805D0022805D18868004708685F
:10171000FCE74868FAE770476000002010B5002930
:101720000FD0084A491E947D13461733E054907D2C
:101730000023884202DA401C907500E0937502484D
:10174000037010BDA40000204000002010B509491E
:101750000878401CC0B20870052809D3064CA07D4B
:10176000002803D020461730FFF7DAFC0020A075D0
:1017700010BD000040000020A400002070470000C1
:1017800010B50024084A214614234B43D358834202
:1017900003D1142041438C1803E0491CC9B202292B
:1017A000F2D3204610BD00006C00002010B50C469E
:1017B000FFF7E6FF002805D0002C05D0012C07D04C
:1017C000022C0CD0042010BD40684169042209E0BD
:1017D00040684169490849004161002010BD4068E6
:1017E000416902229143F7E710B50C46FFF7C8FFA5
:1017F000002809D04068416810229143E207D20EC8
:1018000011434160002010BD042010BD10B50C46EE
:10181000FFF7B6FF002803D0002C03D0012C05D021
:10182000042010BD40684168022202E0406841681F
:10183000012211434160002010BD70B50546FFF73D
:101840009FFF040020D060680169490705D5002189
:101850002846FFF7ABFFE06813E00069C00707D038
:1018600001212846FFF7A2FF2069002800D0804709
:1018700060680069800707D502212846FFF796FFB8
:10188000A068002800D0804770BD000070B50C46ED
:101890000646FFF775FF050030D0002C2ED02178CA
:1018A000304600F068F86168002902D0304600F048
:1018B00074F8A068002807D04068E860A0688068D5
:1018C0002861A0680068A860217BB61D74B2E0069C
:1018D0000125C00E85400129204611D000F038F9BD
:1018E0000321204600F040F9002C05DB0A48056082
:1018F000BFF34F8FBFF36F8F002070BD042070BD0A
:1019000000F026F90321204600F02EF9002CF3DB2D
:10191000014880380560EFE780E100E070B51446CB
:101920000E460025FFF72CFF002815D0002C13D001
:10193000406841680122520291436278D207920DB9
:10194000114341602278002A13D0012A06D0022ACE
:101950000FD0032A0DD101E0002070BD6068410165
:101960006078401C7043FEF72AFC01210904081A24
:1019700085B2284670BD10B50C46FFF701FF002860
:1019800009D040684168C0229143A207120E11435A
:101990004160002010BD042010BD10B50C46FFF7BB
:1019A000EFFE00280ED0002C14D041684A68202396
:1019B0009A432378DB079B0E1A434A60217801295A
:1019C00002D007E0042010BD426861789160406851
:1019D000A178C160002010BD02481E210160E121F4
:1019E00001607047800C004010B506484068000652
:1019F00006D500F02DF804480068002800D0804784
:101A000010BD0000800C00409800002010B5034677
:101A1000007800F027F85868002801D00A490860CB
:101A20000A484168202291435A78D207920E114306
:101A300041605878002804D0012203211620FFF7C6
:101A4000B9F9002010BD000098000020800C004073
:101A500003481E210160E121016000207047000061
:101A6000800C004004494A68000712091201000F67
:101A700002434A6070470000800C004010B50B49DB
:101A80008878012811D10869094C401C0861E26876
:101A900082420AD800208870FFF708FC207E0028C8
:101AA00003D10121084600F081F910BD4400002057
:101AB00024010020054800218278002A02D1012259
:101AC00001618270024841617047000044000020BB
:101AD0002401002070B5D5070124154E8C408001EB
:101AE0008019002D06D0016B002B01D0214300E0AE
:101AF000A1430163910706D5416B002B01D021431F
:101B000000E0A1434163510706D5816B002B01D052
:101B1000214300E0A1438163110706D5C16B002B6F
:101B200001D0214300E0A143C163002070BD00004B
:101B3000000D024030B47446641E2578641CAB422C
:101B400000D21D46635D5B00E31830BC18470000FF
:101B5000002805DBC106C90E012088400149086044
:101B60007047000080E200E08307FF22DB0E9A400E
:101B70008907090E9940002808DB830809489B0063
:101B80001818036893430B43036070470007000F66
:101B90000838830804489B001818C36993430B4313
:101BA000C361704700E400E000ED00E07047000012
:101BB00030B503460A480B4C0CE01A78504000221E
:101BC0005B1CC50702D04008604000E04008521C82
:101BD000082AF6DB0A46491EC9B2002AEDD130BDFB
:101BE000FFFF000001A00000002805D00022491ED0
:101BF00002D30270401CFAE77047F8B501230224B3
:101C00000525062616E000226F463A703B703C70B0
:101C100003213970042139703D703E7007213970FD
:101C20003A703B703C7003223A7004223A703D7067
:101C30003E703970401EE6D2F8BD10B50122032176
:101C4000022000F071F801220421104600F06CF827
:101C500001220521104600F067F810BDF3B50F46CC
:101C600081B0002204210120FFF7AEF90120FFF727
:101C7000C4FF002626E001980024855D0022032190
:101C80000220FFF7A1F90120FFF7B7FF280601D5D1
:101C9000012200E0002205210120FFF795F9012033
:101CA000FFF7ABFF012203210220FFF78DF901208E
:101CB000FFF7A3FF6806641C050EE4B2082CDDD311
:101CC000761CF6B2BE42D6D30120FFF796FF012262
:101CD00004211046FFF778F90120FFF78EFF00225C
:101CE00004210120FFF770F9FEBD000010B50220AD
:101CF000FEF742FB00F0FEF8FFF7FFF900F0ECF80A
:101D000000F048F800F0D2F8FFF7C0F8FFF7CAFB80
:101D1000044C9020E0603221032000F057F80020AE
:101D2000E07010BD240100203EB50023022A0BD034
:101D30000124032A0BD0002A11D0012A0ED10093CE
:101D400001931A46029307E00093019301E0019486
:101D50000093029300230122FFF7DCF83EBD0093BD
:101D6000029301940123F6E710B5094C6069401C09
:101D70006061C8280AD9FFF799FA207E002803D1AC
:101D80000021012000F012F80020606110BD000069
:101D90002401002010B5032100220846FFF7C4FFEC
:101DA000002202210320FFF7BFFF10BD10B500295C
:101DB00007D0012804D1002203210020FFF704F9F5
:101DC00010BD0128FCD10122F6E70000034A137878
:101DD000002B02D140001070916070470400002079
:101DE00070B5124D124C2878002600281BD0012017
:101DF00020766868401C6860A968884214D3032173
:101E00000020FFF76FF8002801D0002200E0012237
:101E100003210020FFF7D8F82878401E0006000EA6
:101E200028706E6000D1267670BD0000040000208E
:101E300024010020FFF75AFFFFF752FCFCE7F3B53F
:101E4000002501270024EE0000983946405DA1409E
:101E5000084205D03019401CC0B2019900F00AF8C0
:101E6000641CE4B2082CEFD36D1CEDB2032DE9D352
:101E7000FCBD000010B5002810D018280ED8094C61
:101E80002246183A131820182038203B064AC07FF3
:101E90000029815CDB7F02D01943815410BD994336
:101EA000FBE7000028000020ED00002008B500201E
:101EB000694608700120487088706846FEF7BAFDD0
:101EC00001211C20FEF70AFE01210820FEF706FE74
:101ED0001E20FEF799FA08BD10B501220421032047
:101EE000FFF722FFFEF7C2FA002204210320FFF7CA
:101EF0006BF810BD1CB508216846FFF775FE0B2076
:101F0000694608700020487001210F20FEF7E6FDA9
:101F10006846FFF77BFDFFF79BFD1CBD70B51D4DAF
:101F200000242868002802D0FFF710FC2C607D21D7
:101F30006868C900884202D3FFF720FC6C60A8687B
:101F4000002804D0FFF74CFFFFF70EFFAC60E868F5
:101F5000142802D3FFF710FBEC607D2128690901EA
:101F6000884200D32C610C486969814200D36C61BE
:101F7000A969814200D3AC61E969814200D3EC6177
:101F8000296A814200D32C62696A814200D36C6263
:101F900070BD00004001002050C30000134A1168CA
:101FA000491C1160814220D311480168491C01601D
:101FB0004168491C41608168491C8160C168491CB5
:101FC000C1600169491C01614169491C4161816924
:101FD000491C8161C169491CC161016A491C0162D6
:101FE000416A491C41620020106070479C0000203B
:101FF0004001002000800000009600001C2000002E
:1020000000000020A400000004010000C020000027
:10201000A4000020240B00002001000000093D0066
:1020200000000000000000000000000001804020CF
:102030001008040180402010080440201008040209
:1020400002018002020202020202020101010101F8
:10205000010100000000000002000001000000007B
:10206000020200000000000000000000000000006C
:102070000000000000000000000000000000000060
:102080000000000000000000000000000000004010
:10209000000000000000000000000000010000003F
:1020A00000010040000000000000000000000000EF
:1020B000000000000000000000000000020000001E
:04000005000000C136
:00000001FF
