:020000040000FA
:10000000B80B0020650100007F010000F10F000027
:1000100000000000000000000000000000000000E0
:10002000000000000000000000000000830100004C
:1000300000000000000000008501000087010000B2
:10004000FD0F000007100000111000001B10000041
:100050008901000089010000251000002F10000018
:1000600039100000890100004310000089010000E0
:100070004D100000890100005710000061100000C1
:100080006B100000751000007F1000008910000048
:10009000931000009D100000A7100000B110000098
:1000A000BB10000089010000C5100000CF10000047
:1000B000D910000089010000E3100000ED100000DD
:1000C00000F002F800F03EF80CA030C80838241800
:1000D0002D18A246671EAB4654465D46AC4201D180
:1000E00000F030F87E460F3E0FCCB6460126334274
:1000F00000D0FB1AA246AB4633431847CC1D000084
:10010000EC1D0000103A02D378C878C1FAD8520723
:1001100001D330C830C101D504680C6070470000BD
:100120000023002400250026103A01D378C1FBD813
:10013000520700D330C100D50B6070471FB51FBDFB
:1001400010B510BD00F0ECF81146FFF7F7FF01F015
:10015000D9FD00F004F903B4FFF7F2FF03BC01F08E
:10016000C5FC00000C480D4A002100A1814200D9C5
:1001700002440B4802600B4880470B480047FEE7EB
:10018000FEE7FEE7FEE7FEE7FEE700000748084956
:10019000084A094B704700000000002000000000E2
:1001A00008ED00E0FD130000C1000000B8010020D0
:1001B000B80B0020B8030020B803002070470022CD
:1001C00003098B422CD3030A8B4211D300239C4694
:1001D0004EE003460B433CD4002243088B4231D30C
:1001E00003098B421CD3030A8B4201D394463FE0A0
:1001F000C3098B4201D3CB01C01A524183098B4200
:1002000001D38B01C01A524143098B4201D34B01E8
:10021000C01A524103098B4201D30B01C01A52414B
:10022000C3088B4201D3CB00C01A524183088B42D2
:1002300001D38B00C01A524143088B4201D34B00BB
:10024000C01A5241411A00D201465241104670472D
:100250005DE0CA0F00D04942031000D34042534032
:1002600000229C4603098B422DD3030A8B4212D3F2
:10027000FC22890112BA030A8B420CD38901921124
:100280008B4208D3890192118B4204D389013AD061
:10029000921100E08909C3098B4201D3CB01C01A36
:1002A000524183098B4201D38B01C01A5241430949
:1002B0008B4201D34B01C01A524103098B4201D337
:1002C0000B01C01A5241C3088B4201D3CB00C01AA4
:1002D000524183088B4201D38B00C01A5241D9D2BC
:1002E00043088B4201D34B00C01A5241411A00D23D
:1002F0000146634652415B10104601D34042002B39
:1003000000D54942704763465B1000D3404201B5B7
:100310000020C046C04602BD704770477047704716
:10032000754600F025F8AE46050069465346C008FC
:10033000C000854618B020B5FFF728FF60BC002735
:100340004908B6460026C0C5C0C5C0C5C0C5C0C5A1
:10035000C0C5C0C5C0C5403D49008D46704710B5F9
:100360000446C046C0462046FFF7F5FE10BD00001B
:10037000004870475401002038B50024009400283C
:1003800010D0012813D002281BD003281ED0042827
:1003900021D0052824D0062824D0072824D00828D6
:1003A00027D02CE0022000F06FFC022003E00220A6
:1003B00000F06AFC032000F0A7FB002000F064FCC2
:1003C0001AE0022000F060FC0420F4E7022000F0B4
:1003D0005BFC0520EFE7022000F056FC0620EAE770
:1003E0000120EBE70320E9E7012000F0B1FB022048
:1003F000E4E7002000F0ACFB00F0C8FA009000F049
:10040000C5FA009438BD000010B586B001216A46D7
:100410001175144A0423141A1348029000206A46E6
:10042000107050709370D07010715171694600F067
:100430005DF9002000F0E8F8002000F025F9012225
:1004400003210E2000F0B6FC2146002000F0BAF88F
:100450002146002000F0F6F8002000F0EDF906B08B
:1004600010BD0000FFFF00009505000070B592B0C0
:100470000C210FA801F058FB03210EA801F054FB3A
:1004800008210CA801F050FB142103A801F04CFB3B
:1004900000240094019401232246052103200294A4
:1004A00000F036FD00940194012300220621032070
:1004B000029400F02DFD3348C16820229143C160B1
:1004C00031494B69DB08DB005B1C4B6103689343DC
:1004D0000360C36840229343C3608B69DB08DB0081
:1004E0005B1C8B61016811430160416A11434162E9
:1004F0000121082000F0F2FA0121084600F0EEFA8E
:1005000022481190224810900F940FA80A900125BC
:1005100008A80573057004760EA8099008A844740D
:100520004B20C0010D9008A8057400F077FA014631
:100530000CAA012001F0BEF9064668464574047411
:1005400003A9012000F0D2F83146012000F03AF86A
:100550003146012000F076F8012000F06DF908A97D
:10056000012001F05FF90121084601F01BF901218A
:10057000084601F0E7F80121084601F001F912B040
:1005800070BD0000C00D0240C00C0240D913000035
:10059000350E000010B5002000F092F801280ED1B1
:1005A000002000F031F800F067FF212001F05CFC32
:1005B00003488178491C81704168491C416010BD25
:1005C000A000002000220F4B002806D001280AD0EE
:1005D00002280ED00122104670471868000C000453
:1005E00008431860F7E7186A000C00040843186213
:1005F000F1E70448403003681B0C1B040B43036005
:10060000E9E70000000C004000210D4A002806D058
:10061000012809D002280CD00121084670475069F2
:10062000400840005061F8E7506B400840005063BC
:10063000F3E7034840304269520852004261ECE758
:10064000000C004000220F4B002806D001280AD0E1
:1006500002280ED00122104670475868000C000492
:1006600008435860F7E7586A000C000408435862D2
:10067000F1E70448403043681B0C1B040B43436004
:10068000E9E70000000C00400C4B00211A1500287F
:1006900006D0012808D002280AD001210846704758
:1006A000D8681043D860F9E7D86A1043D862F5E7F4
:1006B00002484030C3681343C360EFE7000C0040BA
:1006C00001460020084A002909D0012909D0022941
:1006D00004D1054840300069C007C00F7047106959
:1006E000FAE7106BF8E70000000C0040F0B5504A44
:1006F00000230224551596157027002806D00128DE
:1007000034D0022862D001231846F0BDD068A84337
:100710000D78ED07AD0D2843D060D0684D78B0431B
:10072000ED07ED0D2843D060D0688D78B8436D0794
:100730006D0E2843D060D0680825A843CD78ED071A
:100740002D0F2843D060D0680425A8430D79ED070C
:100750006D0F2843D060D068A0434C79E407A40F04
:100760002043D060334889680160CDE7D06AA84350
:100770000D78ED07AD0D2843D062D06A4D78B043B7
:10078000ED07ED0D2843D062D06A8D78B8436D0730
:100790006D0E2843D062D06A0825A843CD78ED07B6
:1007A0002D0F2843D062D06A0425A8430D79ED07A8
:1007B0006D0F2843D062D06AA0434C79E407A40FA0
:1007C0002043D0621B48C96841609DE7184840300B
:1007D000C268AA430D78ED07AD0D2A43C260C26816
:1007E0004D78B243ED07ED0D2A43C260C2688D78A3
:1007F000BA436D076D0E2A43C260C2680825AA433A
:10080000CD78ED072D0F2A43C260C2680425AA43A4
:100810000D79ED076D0F2A43C260C268A2434C797F
:10082000E407A40F2243C2600248096981606BE7B4
:10083000000C00405C000020002101220B4B00282E
:1008400006D0012808D002280AD0012108467047A6
:10085000D8681043D860F9E7D86A1043D862F5E742
:1008600002484030C3681343C360EFE7000C004008
:100870000348024981600349816070475A5A000069
:1008800000200040A5A5000003480F220168D20205
:10089000914301607047000000200040F8B50C460D
:1008A00006460025FFF7E4FF002C01D0012000E000
:1008B0000020274C276A002E46D0E1030423012E96
:1008C00028D0022E20D0032E05D0FFF7DDFF04250F
:1008D00027622846F8BD226A0A4322621D49CA6877
:1008E00010239A4303011A43CA60CA6820239A431B
:1008F00043011A43CA60A1690F221143A161216813
:1009000008229143C00002E021689943800001431E
:100910002160DDE7226A0A4322620E494039CE682F
:100920000222964342001643CE60CE6880009E436A
:100930000643CE6021690F20014321612068022116
:10094000884310432060C3E7216849084900DEE777
:1009500000200040400D0240014600200A4A0029C4
:1009600009D001290AD002290AD0032902D19069AD
:100970004006C00F7047D0680005FAE71069F7E736
:100980005069C004F5E70000002000400EB51BA12F
:10099000096802911A49002006C90192194A00917A
:1009A00011688906890F06D001291ED0022915D0A9
:1009B00003291ED11BE0D06802A94005800F085C06
:1009C000114948431149884213D111494988D368D4
:1009D0005B055B0D8B420CD10E480AE050696946FD
:1009E0008005C00F8000085803E00B4801E001209B
:1009F000C0031168C905490FC8400EBD040810188E
:100A0000C01E00000020004040420F0000366E0172
:100A1000000C1000408651010048E80100B5FFF7C6
:100A2000B5FF034909684905890FC84000BD0000AA
:100A30000020004010B50446007800F025F96078E9
:100A400000F006F8A07800F02BF8002010BD0000A0
:100A500010B50446102811D008DC012C0ED0022C51
:100A60000CD0042C0AD0082C06D107E0202C05D08D
:100A7000402C03D0802C01D0042010BDFFF7F8FEDD
:100A8000204600F041FB054A1168FF23C1334007AF
:100A90009943C00D01431160002010BD00200040AB
:100AA00010B50446012807D0022C05D0042C03D031
:100AB000082C01D0042010BDFFF7DAFE204600F01C
:100AC00023FB054A116803235B0280079943400D0D
:100AD00001431160002010BD00200040034610B506
:100AE0000020002901D0012200E000220121054C54
:100AF0009940002A226A01D00A4300E08A43226218
:100B000010BD00000020004010B50446A41E0020C7
:100B10000D4A0E49230000F0ADFF050406080A0C3B
:100B20001500128906E0D28804E0928802E052881B
:100B300000E01288CB685205520DDB0ADB0213433A
:100B4000CB6010BD042010BD000C10000020004040
:100B500001460020094B0A4A002903D0012903D08D
:100B600004207047598800E0198853698905890D68
:100B70009B0A9B020B43536170470000200C10003E
:100B800000200040032300210F4A9B02002808D0C8
:100B9000012809D002280ED0032812D004210846CB
:100BA00070475069984304E05069984301239B02C1
:100BB00005E05061F3E7506998430123DB02C01858
:100BC000F7E750691843F4E70020004070B5044689
:100BD0000025FFF74DFE002C0AD0012C08D0022C76
:100BE00006D0032C04D0FFF74FFE0425284670BD25
:100BF0000449086830229043A207920E104308600F
:100C0000F4E700000020004000210E4A30230328B2
:100C100008D0042809D005280CD006280ED00421BD
:100C2000084670471069984302E0106998431030F5
:100C30001061F5E7106998432030F9E7106918430F
:100C4000F6E700000020004000210E4A3023032870
:100C500008D0042809D005280CD006280ED004217D
:100C6000084670479069984302E0906998431030B5
:100C70009061F5E7906998432030F9E7906918434F
:100C8000F6E7000000200040F8B504461F48006861
:100C90008006860F200012D0012805D0022807D038
:100CA000032C09D00420F8BD0620FFF7ADFF06E0B5
:100CB0000320FFF767FF02E00520FFF7C5FF154D92
:100CC0001348E8621448E8620427012C01D0012E81
:100CD00002D1286A3843286201212046FFF7DEFD51
:100CE0002046FFF739FE0028FAD02046FFF76EFFB6
:100CF00000213046FFF7D2FD012C02D0286AB8430C
:100D0000286200F073FB0020F8BD000000200040C6
:100D10005A5A000000000240A5A5000000280FD08C
:100D20001E4A116AD30219431162017803239B06FC
:100D3000002907D001292AD0022908D0032929D067
:100D400004207047516B99430123DB0603E0516B8C
:100D5000994301239B06C9185163516B01235B061C
:100D600099434378DB079B091943516341680C4859
:100D7000491E41610B49CA691202120A43041A430F
:100D8000CA61002181610121016100207047516B1E
:100D90001943E1E7516B9943DEE700000020004072
:100DA00000E000E004ED00E00148006800470000BA
:100DB0009000002070B5C506ED0E012443B2AC4092
:100DC000002B01DB174D2C608007C00EFF258540EE
:100DD0008907090E8140002B08DB9E081248B600E7
:100DE00030180668AE430E4306600AE01807000F8D
:100DF000083886080D48B6003018C669AE430E4361
:100E0000C661012A08D0002B05DB09480460BFF346
:100E10004F8FBFF36F8F70BD002BFCDB0448803811
:100E2000046070BD80E200E000E400E000ED00E05E
:100E300080E100E07047034610B50020024604E060
:100E40009C5C2018521CC0B2D2B28A42F8D310BDAA
:100E5000F0B501460A2251430020CCB20A4E0146A9
:100E600001256218D3085207520FF31860335B7BD9
:100E70002F4697403B4202D02A468A401043491CE5
:100E8000C9B20A29EDD3F0BDA000002010B503219E
:100E9000084600F027F8094C002803D1207D0121E5
:100EA000084320750221032000F01CF8002803D11C
:100EB000207D02210843207510BD0000A000002005
:100EC000820104481018026901238B409A43026191
:100ED00000207047000E024000B5012300F09AFD8B
:100EE000002000BD034A800180184068C840C00748
:100EF000C00F7047000D024010B50449EF22086989
:100F00001040086100F09CFB10BD0000800E024004
:100F1000F0B504461F480F46016A1D461646C20337
:100F20001143016200223946204600F039F8A00141
:100F3000BA00194B00218218D218116017490124F8
:100F4000BC4040180168002E01D0214300E0A143BD
:100F5000016007990029C16901D0214300E0A14344
:100F6000C161016A002D01D0214300E0A14301626B
:100F700005990029416A01D0214300E0A143416263
:100F800006990029C16A01D0214300E0A143C16252
:100F90000020F0BD00200040000C0240000D024087
:100FA00010B50123064C8B4080010019C168002A4E
:100FB00001D0194300E09943C160002010BD00003A
:100FC000000D024010B5002A01D0012300E00023EB
:100FD0000122064C8A40800100198168002B01D053
:100FE000114300E09143816010BD0000000D0240FC
:100FF00008B5002000900028FDD008BD10B50020E5
:10100000FFF77AFF10BD10B50120FFF775FF10BD87
:1010100010B50220FFF770FF10BD10B50320FFF7D9
:101020006BFF10BD10B5002000F0D3FB10BD10B554
:10103000012000F0CEFB10BD10B50020C046C04618
:1010400010BD10B50020C046C04610BD10B5002030
:10105000C046C04610BD10B5002000F01BFB10BDFF
:1010600010B5012000F016FB10BD10B5022000F0F5
:1010700011FB10BD10B50020C046C04610BD10B514
:101080000420C046C04610BD10B50520C046C0466D
:1010900010BD10B50620C046C04610BD10B50020DA
:1010A000C046C04610BD10B5002000F069FC10BD60
:1010B00010B50020C046C04610BD10B50020C04687
:1010C000C04610BD10B50020C046C04610BD10B5CA
:1010D0000120C046C04610BD10B50020C046C04625
:1010E00010BD10B50020FFF75FFE10BD10B5002049
:1010F000C046C04610BD10B501220321002000F0FB
:10110000ABFD00F03AFD10BD0021002805D001E044
:101110004008491C0128FBD808467047F8B504462A
:101120000C21FFF788FE434D217B2E460127803698
:10113000603581421ED12078FB281ED13221032048
:1011400000F0B6FD6078012814D1A0786873E078CB
:10115000A8732079E87360792874A0796874E079BD
:10116000A874207AE874607A2875A07A6875E07AA5
:10117000A87537722078FB2829D0002061780129D2
:1011800027D000221040227BF12A24D000221040D8
:10119000627BF22A21D00022104220D0322103208B
:1011A00000F086FDA0786873E078A8732079E87372
:1011B00060792874A0796874E079A874207AE8745A
:1011C000607A2875A07A6875E07AA87530E0012009
:1011D000D4E70122D6E70122D9E70122DCE7207813
:1011E0005A2826D1292924D11B21204600F080FC31
:1011F000E17E227F0902891881421AD1322103201F
:1012000000F056FDA0786873E078A8732079E87341
:1012100060792874A0796874E079A874A07AE87479
:10122000E07A2875207B6875607BA875A07BE875DF
:101230003772F8BDA0000020F0B585B00020009006
:10124000019061A003C8624D03910290287A0028A2
:1012500072D02E465F48803E01783446307D60343F
:10126000002904D001296AD0022967D095E05849A5
:10127000EF222039CF7B1F26497C002816D0544B03
:10128000203B1B7C012823D0514B203B197C8A0931
:10129000597C9B7C8C069B06240E89091B0E2243DD
:1012A0001943022837D0032835D076E0607B6B469F
:1012B0001870A07B58703807000F9870490602D547
:1012C0001021084300E0104098700121184613E0F7
:1012D00038091C0120436C46207018090B01184383
:1012E00060700809A070090602D51021084300E0CB
:1012F0001040A0700121204600F009FD69460878E1
:10130000C04308704878C0434870887886438E7020
:10131000002168463FE06B461A705970012168460B
:1013200000F0F5FC6B461878C04318705878C0433D
:101330005870002168462EE036E000E036E00028D4
:1013400004D001280BD0022816D026E0002102A8E4
:1013500000F0DDFC607B69460870A07B30E0002176
:1013600002A800F0D4FCA07B8108E07B820111433D
:101370006A46117080080BE0002102A800F0C7FC4B
:10138000E07B0109207C020111436A4611700009CB
:1013900050700121104600F0BAFC0D480321373887
:1013A00000F0FCFB0020287205B0F0BD002102A86F
:1013B00000F0ADFC307DFFF74BFD69460870000A78
:1013C00048700121A5E70000FFFFFFFFFFFF0000BD
:1013D000200100209C00002000B503480068322155
:1013E000C0B200F067F900BD0001004010B5FFF782
:1013F000CDFA0149086010BD000000201CB5022094
:10140000FFF782FB01210020FFF748FAFFF7EEFF0C
:101410000821684600F088FB0120694648700348AF
:1014200001906846FFF77AFC1CBD0000FFFFFF003B
:101430000EB501220521022000F00EFC012206213A
:10144000022000F009FC002000900190012302908E
:101450001A4604210220FFF75BFD04210220FFF75A
:101460002FFD042211460220FFF736FD0122032141
:101470000220FFF79FFC0EBD10B51A4CA068401C5F
:10148000A060E168491CE1606279002A12D02178ED
:10149000884204D3CB1C984201D2002206E089186E
:1014A000491D814206D8F02804D8012205210220D6
:1014B000FFF788FDA279002A13D06178E06888429E
:1014C00004D3CB1C984201D2002206E08918491DA2
:1014D000814206D8F02804D8012206210220FFF715
:1014E00071FD10BD44000020FCB552486946C57C22
:1014F0000D70047D4C70437D8B70827DCA70C67DFB
:101500000E71007E487184464B48B64607784948BC
:1015100000266038017D4948002F25D0012F3AD19F
:1015200007463879401CC0B23871424F2037FF78E7
:10153000874230D84148074610370671002932D01B
:1015400001294CD0022926D13979714501D9491E8A
:101550003971C9B2714501D2491C39710906090EA8
:1015600059D04900417157E0D027002907D00129FF
:1015700011D1002B10D0F91A490041710DE0002D56
:1015800003D0791B4900417100E04671002C01D065
:10159000391B05E08671FCBD4671002AFAD0B91AE4
:1015A00049008171FCBD3978A94201D9491E3970C1
:1015B000C9B2A94201D2491C39700906090E02D0EC
:1015C0004900417100E046717978A14201D9491E74
:1015D0007970C9B2A14229D2491C797026E0B97844
:1015E000994201D9491EB970C9B2994201D2491C28
:1015F000B9700906090E02D04900417100E0467138
:10160000F978914201D9491EF970C9B291420DD2BF
:10161000491CF9700AE046717979614501D9491E82
:101620007971C9B2614501D2491C79710906090E67
:10163000B6D1AFE7000100209C000020440000204C
:1016400010B50B490020FEF7FDFF01220521022005
:10165000FFF7B8FC012206210220FFF7B3FC054882
:1016600000218160C1601E2000F067FA10BD0000FB
:10167000E1FF00004400002010B5054CA0782128AF
:1016800005D300F0B3FB00F073F90020A07010BD8B
:10169000A00000200649002805D0012805D0022816
:1016A00005D1886800470868FCE74868FAE7704792
:1016B0005C00002010B500290FD0084A491E947D17
:1016C00013461733E054907D0023884202DA401C11
:1016D000907500E093750248037010BDA0000020D3
:1016E0004000002010B509490878401CC0B20870BD
:1016F000052809D3064CA07D002803D020461730CA
:10170000FFF70CFD0020A07510BD00004000002078
:10171000A00000207047000010B50024084A2146B0
:1017200014234B43D358834203D1142041438C18D4
:1017300003E0491CC9B20229F2D3204610BD0000C3
:101740006800002010B50C46FFF7E6FF002805D022
:10175000002C05D0012C07D0022C0CD0042010BD89
:1017600040684169042209E040684169490849002C
:101770004161002010BD4068416902229143F7E7B2
:1017800010B50C46FFF7C8FF002809D04068416833
:1017900010229143E207D20E11434160002010BD98
:1017A000042010BD10B50C46FFF7B6FF002803D08B
:1017B000002C03D0012C05D0042010BD40684168E6
:1017C000022202E04068416801221143416000208A
:1017D00010BD70B50546FFF79FFF040020D060687C
:1017E0000169490705D500212846FFF7ABFFE068EE
:1017F00013E00069C00707D001212846FFF7A2FFC8
:101800002069002800D0804760680069800707D5FC
:1018100002212846FFF796FFA068002800D08047E5
:1018200070BD000070B50C460646FFF775FF050059
:1018300030D0002C2ED02178304600F068F8616856
:10184000002902D0304600F074F8A068002807D0C4
:101850004068E860A06880682861A0680068A860A7
:10186000217BB61D74B2E0060125C00E854001291A
:10187000204611D000F00CF90321204600F014F9A5
:10188000002C05DB0A480560BFF34F8FBFF36F8F55
:10189000002070BD042070BD00F0FAF8032120463E
:1018A00000F002F9002CF3DB014880380560EFE717
:1018B00080E100E070B514460E460025FFF72CFFCE
:1018C000002815D0002C13D0406841680122520234
:1018D00091436278D207920D114341602278002A29
:1018E00013D0012A06D0022A0FD0032A0DD101E01D
:1018F000002070BD606841016078401C7043FEF7B5
:101900005EFC01210904081A85B2284670BD10B595
:101910000C46FFF701FF002809D040684168C0224B
:101920009143A207120E11434160002010BD042014
:1019300010BD10B50C46FFF7EFFE00280ED0002CAE
:1019400014D041684A6820239A432378DB079B0E12
:101950001A434A602178012902D007E0042010BD13
:101960004268617891604068A178C160002010BD34
:1019700002481E210160E12101607047800C004097
:1019800010B506484068000606D500F02DF804485A
:101990000068002800D0804710BD0000800C004087
:1019A0009400002010B50346007800F027F858682E
:1019B000002801D00A4908600A4841682022914362
:1019C0005A78D207920E114341605878002804D00B
:1019D000012203211620FFF7EDF9002010BD0000C1
:1019E00094000020800C004003481E210160E1218A
:1019F0000160002070470000800C004004494A68E4
:101A0000000712091201000F02434A6070470000EC
:101A1000800C004070B5D5070124154E8C40800124
:101A20008019002D06D0016B002B01D0214300E06E
:101A3000A1430163910706D5416B002B01D02143DF
:101A400000E0A1434163510706D5816B002B01D013
:101A5000214300E0A1438163110706D5C16B002B30
:101A600001D0214300E0A143C163002070BD00000C
:101A7000000D024030B47446641E2578641CAB42ED
:101A800000D21D46635D5B00E31830BC18470000C0
:101A9000002805DBC106C90E012088400149086005
:101AA0007047000080E200E08307FF22DB0E9A40CF
:101AB0008907090E9940002808DB830809489B0024
:101AC0001818036893430B43036070470007000F27
:101AD0000838830804489B001818C36993430B43D4
:101AE000C361704700E400E000ED00E070470000D3
:101AF00030B503460A480B4C0CE01A7850400022DF
:101B00005B1CC50702D04008604000E04008521C42
:101B1000082AF6DB0A46491EC9B2002AEDD130BDBB
:101B2000FFFF000001A00000002805D00022491E90
:101B300002D30270401CFAE77047F8B50123022473
:101B40000525062616E000226F463A703B703C7071
:101B500003213970042139703D703E7007213970BE
:101B60003A703B703C7003223A7004223A703D7028
:101B70003E703970401EE6D2F8BD10B50122032137
:101B8000022000F069F801220421104600F064F8F8
:101B900001220521104600F05FF810BDF3B50F4695
:101BA00081B0002204210120FFF70CFA0120FFF789
:101BB000C4FF002626E001980024855D0022032151
:101BC0000220FFF7FFF90120FFF7B7FF280601D534
:101BD000012200E0002205210120FFF7F3F9012096
:101BE000FFF7ABFF012203210220FFF7EBF90120F1
:101BF000FFF7A3FF6806641C050EE4B2082CDDD3D2
:101C0000761CF6B2BE42D6D30120FFF796FF012222
:101C100004211046FFF7D6F90120FFF78EFF0022BE
:101C200004210120FFF7CEF9FEBD10B50220FEF71A
:101C3000A3FB00F0C7F8FFF75EFA00F0B5F800F07C
:101C40002BF800F09BF8FFF721F9FFF7F1FB3221A9
:101C5000032000F02DF810BD3EB50023022A0BD062
:101C60000124032A0BD0002A11D0012A0ED100939F
:101C700001931A46029307E00093019301E0019457
:101C80000093029300230122FFF742F93EBD009327
:101C9000029301940123F6E710B5032100220846C0
:101CA000FFF7DAFF002202210320FFF7D5FF10BD66
:101CB000034A1378002B02D14000107091607047E6
:101CC0000400002010B50E4C2078002817D0606862
:101CD000401C6060A168884211D303210020FFF7F7
:101CE00001F9002801D0002200E001220321002098
:101CF000FFF768F92078401E20700020606010BD5A
:101D000004000020FFF791FFFFF7B6FCFCE7F3B5F6
:101D1000002501270024EE0000983946405DA140CF
:101D2000084205D03019401CC0B2019900F00AF8F1
:101D3000641CE4B2082CEFD36D1CEDB2032DE9D383
:101D4000FCBD000010B5002810D018280ED8094C92
:101D50002246183A131820182038203B064AC07F24
:101D60000029815CDB7F02D01943815410BD994367
:101D7000FBE7000028000020E900002008B5002053
:101D8000694608700120487088706846FEF752FE68
:101D900001211C20FEF7A2FE01210820FEF79EFE75
:101DA0001E20FEF731FB08BD10B5012204210320DF
:101DB000FFF752FFFEF75AFB002204210320FFF732
:101DC00001F910BD1CB508216846FFF7ADFE0B20D8
:101DD000694608700020487001210F20FEF77EFE42
:101DE0006846FFF7DFFDFFF7FFFD1CBD70B51C4D1A
:101DF00000242868002802D0FFF774FC2C607D21A5
:101E00006868C900884202D3FFF784FC6C60A86848
:101E1000002802D0FFF756FFAC60E868142804D30E
:101E2000FFF70AFAFFF760FBEC600E482969814270
:101E300000D32C616969814200D36C61A969814238
:101E400000D3AC61E969814200D3EC61296A814227
:101E500000D32C62696A814200D36C6270BD0000BD
:101E60002C01002050C30000134A1168491C116066
:101E7000814220D311480168491C01604168491C16
:101E800041608168491C8160C168491CC160016969
:101E9000491C01614169491C41618169491C816199
:101EA000C169491CC161016A491C0162416A491C3E
:101EB0004162002010607047980000202C01002033
:101EC0000080000000960000E81E000000000020D6
:101ED000A000000004010000881F0000A0000020F6
:101EE000180B00002001000000093D000000000068
:101EF00000000000000000000180402010080401E4
:101F000080402010080440201008040202018002D2
:101F100002020202020202010101010101010000AC
:101F200000000000020000010000000002020000AA
:101F300000000000000000000000000000000000A1
:101F40000000000000000000000000000000000091
:101F50000000000000000040000000000000000041
:101F6000000000000100000000010040000000002F
:101F70000000000000000000000000000000000061
:081F8000000000000200000057
:04000005000000C136
:00000001FF
