:020000040000FA
:10000000980B0020650100007F010000B50F000083
:1000100000000000000000000000000000000000E0
:10002000000000000000000000000000830100004C
:1000300000000000000000008501000087010000B2
:10004000C10F0000CB0F0000D50F0000DF0F000034
:100050008901000089010000E90F0000F30F000092
:10006000FD0F000089010000071000008901000059
:1000700011100000890100001B1000002510000075
:100080002F10000039100000431000004D10000038
:1000900057100000611000006B1000007510000088
:1000A0007F100000890100008910000093100000FB
:1000B0009D10000089010000A7100000B110000091
:1000C00000F002F800F03EF80CA030C80838241800
:1000D0002D18A246671EAB4654465D46AC4201D180
:1000E00000F030F87E460F3E0FCCB6460126334274
:1000F00000D0FB1AA246AB4633431847901A0000C3
:10010000B01A0000103A02D378C878C1FAD8520762
:1001100001D330C830C101D504680C6070470000BD
:100120000023002400250026103A01D378C1FBD813
:10013000520700D330C100D50B6070471FB51FBDFB
:1001400010B510BD00F0ECF81146FFF7F7FF01F015
:100150003BFC00F004F903B4FFF7F2FF03BC01F02D
:1001600043FB00000C480D4A002100A1814200D948
:1001700002440B4802600B4880470B480047FEE7EB
:10018000FEE7FEE7FEE7FEE7FEE700000748084956
:10019000084A094B704700000000002000000000E2
:1001A00008ED00E0F9110000C100000098010020F6
:1001B000980B00209803002098030020704700222D
:1001C00003098B422CD3030A8B4211D300239C4694
:1001D0004EE003460B433CD4002243088B4231D30C
:1001E00003098B421CD3030A8B4201D394463FE0A0
:1001F000C3098B4201D3CB01C01A524183098B4200
:1002000001D38B01C01A524143098B4201D34B01E8
:10021000C01A524103098B4201D30B01C01A52414B
:10022000C3088B4201D3CB00C01A524183088B42D2
:1002300001D38B00C01A524143088B4201D34B00BB
:10024000C01A5241411A00D201465241104670472D
:100250005DE0CA0F00D04942031000D34042534032
:1002600000229C4603098B422DD3030A8B4212D3F2
:10027000FC22890112BA030A8B420CD38901921124
:100280008B4208D3890192118B4204D389013AD061
:10029000921100E08909C3098B4201D3CB01C01A36
:1002A000524183098B4201D38B01C01A5241430949
:1002B0008B4201D34B01C01A524103098B4201D337
:1002C0000B01C01A5241C3088B4201D3CB00C01AA4
:1002D000524183088B4201D38B00C01A5241D9D2BC
:1002E00043088B4201D34B00C01A5241411A00D23D
:1002F0000146634652415B10104601D34042002B39
:1003000000D54942704763465B1000D3404201B5B7
:100310000020C046C04602BD704770477047704716
:10032000754600F025F8AE46050069465346C008FC
:10033000C000854618B020B5FFF728FF60BC002735
:100340004908B6460026C0C5C0C5C0C5C0C5C0C5A1
:10035000C0C5C0C5C0C5403D49008D46704710B5F9
:100360000446C046C0462046FFF7F5FE10BD00001B
:10037000004870473401002038B50024009400285C
:1003800010D0012813D002281BD003281ED0042827
:1003900021D0052824D0062824D0072824D00828D6
:1003A00027D02CE0022000F06FFC022003E00220A6
:1003B00000F06AFC032000F0A7FB002000F064FCC2
:1003C0001AE0022000F060FC0420F4E7022000F0B4
:1003D0005BFC0520EFE7022000F056FC0620EAE770
:1003E0000120EBE70320E9E7012000F0B1FB022048
:1003F000E4E7002000F0ACFB00F0C8FA009000F049
:10040000C5FA009438BD000010B586B001216A46D7
:100410001175144A0423141A1348029000206A46E6
:10042000107050709370D07010715171694600F067
:100430005DF9002000F0E8F8002000F025F9012225
:1004400003210E2000F0B6FC2146002000F0BAF88F
:100450002146002000F0F6F8002000F0EDF906B08B
:1004600010BD0000FFFF00009505000070B592B0C0
:100470000C210FA801F0B9F903210EA801F0B5F97C
:1004800008210CA801F0B1F9142103A801F0ADF97D
:1004900000240094019401232246052103200294A4
:1004A00000F018FD0094019401230022062103208E
:1004B000029400F00FFD3348C16820229143C160CF
:1004C00031494B69DB08DB005B1C4B6103689343DC
:1004D0000360C36840229343C3608B69DB08DB0081
:1004E0005B1C8B61016811430160416A11434162E9
:1004F0000121082000F0F2FA0121084600F0EEFA8E
:1005000022481190224810900F940FA80A900125BC
:1005100008A80573057004760EA8099008A844740D
:100520004B20C0010D9008A8057400F077FA014631
:100530000CAA012001F03CF8064668464574047494
:1005400003A9012000F0D2F83146012000F03AF86A
:100550003146012000F076F8012000F06DF908A97D
:10056000012000F0DDFF0121084600F099FF012184
:10057000084600F065FF0121084600F07FFF12B039
:1005800070BD0000C00D0240C00C0240D51100003B
:10059000350E000010B5002000F092F801280ED1B1
:1005A000002000F031F800F065FE212001F0BEFAD5
:1005B00003488178491C81704168491C416010BD25
:1005C0009000002000220F4B002806D001280AD0FE
:1005D00002280ED00122104670471868000C000453
:1005E00008431860F7E7186A000C00040843186213
:1005F000F1E70448403003681B0C1B040B43036005
:10060000E9E70000000C004000210D4A002806D058
:10061000012809D002280CD00121084670475069F2
:10062000400840005061F8E7506B400840005063BC
:10063000F3E7034840304269520852004261ECE758
:10064000000C004000220F4B002806D001280AD0E1
:1006500002280ED00122104670475868000C000492
:1006600008435860F7E7586A000C000408435862D2
:10067000F1E70448403043681B0C1B040B43436004
:10068000E9E70000000C00400C4B00211A1500287F
:1006900006D0012808D002280AD001210846704758
:1006A000D8681043D860F9E7D86A1043D862F5E7F4
:1006B00002484030C3681343C360EFE7000C0040BA
:1006C00001460020084A002909D0012909D0022941
:1006D00004D1054840300069C007C00F7047106959
:1006E000FAE7106BF8E70000000C0040F0B5504A44
:1006F00000230224551596157027002806D00128DE
:1007000034D0022862D001231846F0BDD068A84337
:100710000D78ED07AD0D2843D060D0684D78B0431B
:10072000ED07ED0D2843D060D0688D78B8436D0794
:100730006D0E2843D060D0680825A843CD78ED071A
:100740002D0F2843D060D0680425A8430D79ED070C
:100750006D0F2843D060D068A0434C79E407A40F04
:100760002043D060334889680160CDE7D06AA84350
:100770000D78ED07AD0D2843D062D06A4D78B043B7
:10078000ED07ED0D2843D062D06A8D78B8436D0730
:100790006D0E2843D062D06A0825A843CD78ED07B6
:1007A0002D0F2843D062D06A0425A8430D79ED07A8
:1007B0006D0F2843D062D06AA0434C79E407A40FA0
:1007C0002043D0621B48C96841609DE7184840300B
:1007D000C268AA430D78ED07AD0D2A43C260C26816
:1007E0004D78B243ED07ED0D2A43C260C2688D78A3
:1007F000BA436D076D0E2A43C260C2680825AA433A
:10080000CD78ED072D0F2A43C260C2680425AA43A4
:100810000D79ED076D0F2A43C260C268A2434C797F
:10082000E407A40F2243C2600248096981606BE7B4
:10083000000C004050000020002101220B4B00283A
:1008400006D0012808D002280AD0012108467047A6
:10085000D8681043D860F9E7D86A1043D862F5E742
:1008600002484030C3681343C360EFE7000C004008
:100870000348024981600349816070475A5A000069
:1008800000200040A5A5000003480F220168D20205
:10089000914301607047000000200040F8B50C460D
:1008A00006460025FFF7E4FF002C01D0012000E000
:1008B0000020274C276A002E46D0E1030423012E96
:1008C00028D0022E20D0032E05D0FFF7DDFF04250F
:1008D00027622846F8BD226A0A4322621D49CA6877
:1008E00010239A4303011A43CA60CA6820239A431B
:1008F00043011A43CA60A1690F221143A161216813
:1009000008229143C00002E021689943800001431E
:100910002160DDE7226A0A4322620E494039CE682F
:100920000222964342001643CE60CE6880009E436A
:100930000643CE6021690F20014321612068022116
:10094000884310432060C3E7216849084900DEE777
:1009500000200040400D0240014600200A4A0029C4
:1009600009D001290AD002290AD0032902D19069AD
:100970004006C00F7047D0680005FAE71069F7E736
:100980005069C004F5E70000002000400EB51BA12F
:10099000096802911A49002006C90192194A00917A
:1009A00011688906890F06D001291ED0022915D0A9
:1009B00003291ED11BE0D06802A94005800F085C06
:1009C000114948431149884213D111494988D368D4
:1009D0005B055B0D8B420CD10E480AE050696946FD
:1009E0008005C00F8000085803E00B4801E001209B
:1009F000C0031168C905490FC8400EBD040810188E
:100A0000841B00000020004040420F0000366E01B1
:100A1000000C1000408651010048E80100B5FFF7C6
:100A2000B5FF034909684905890FC84000BD0000AA
:100A30000020004010B50446007800F025F96078E9
:100A400000F006F8A07800F02BF8002010BD0000A0
:100A500010B50446102811D008DC012C0ED0022C51
:100A60000CD0042C0AD0082C06D107E0202C05D08D
:100A7000402C03D0802C01D0042010BDFFF7F8FEDD
:100A8000204600F023FB054A1168FF23C1334007CD
:100A90009943C00D01431160002010BD00200040AB
:100AA00010B50446012807D0022C05D0042C03D031
:100AB000082C01D0042010BDFFF7DAFE204600F01C
:100AC00005FB054A116803235B0280079943400D2B
:100AD00001431160002010BD00200040034610B506
:100AE0000020002901D0012200E000220121054C54
:100AF0009940002A226A01D00A4300E08A43226218
:100B000010BD00000020004010B50446A41E0020C7
:100B10000D4A0E49230000F02BFE050406080A0CBE
:100B20001500128906E0D28804E0928802E052881B
:100B300000E01288CB685205520DDB0ADB0213433A
:100B4000CB6010BD042010BD000C10000020004040
:100B500001460020094B0A4A002903D0012903D08D
:100B600004207047598800E0198853698905890D68
:100B70009B0A9B020B43536170470000200C10003E
:100B800000200040032300210F4A9B02002808D0C8
:100B9000012809D002280ED0032812D004210846CB
:100BA00070475069984304E05069984301239B02C1
:100BB00005E05061F3E7506998430123DB02C01858
:100BC000F7E750691843F4E70020004070B5044689
:100BD0000025FFF74DFE002C0AD0012C08D0022C76
:100BE00006D0032C04D0FFF74FFE0425284670BD25
:100BF0000449086830229043A207920E104308600F
:100C0000F4E700000020004000210E4A30230328B2
:100C100008D0042809D005280CD006280ED00421BD
:100C2000084670471069984302E0106998431030F5
:100C30001061F5E7106998432030F9E7106918430F
:100C4000F6E700000020004000210E4A3023032870
:100C500008D0042809D005280CD006280ED004217D
:100C6000084670479069984302E0906998431030B5
:100C70009061F5E7906998432030F9E7906918434F
:100C8000F6E7000000200040F8B504461F48006861
:100C90008006860F200012D0012805D0022807D038
:100CA000032C09D00420F8BD0620FFF7ADFF06E0B5
:100CB0000320FFF767FF02E00520FFF7C5FF154D92
:100CC0001348E8621448E8620427012C01D0012E81
:100CD00002D1286A3843286201212046FFF7DEFD51
:100CE0002046FFF739FE0028FAD02046FFF76EFFB6
:100CF00000213046FFF7D2FD012C02D0286AB8430C
:100D0000286200F071FA0020F8BD000000200040C9
:100D10005A5A000000000240A5A5000000280FD08C
:100D20001E4A116AD30219431162017803239B06FC
:100D3000002907D001292AD0022908D0032929D067
:100D400004207047516B99430123DB0603E0516B8C
:100D5000994301239B06C9185163516B01235B061C
:100D600099434378DB079B091943516341680C4859
:100D7000491E41610B49CA691202120A43041A430F
:100D8000CA61002181610121016100207047516B1E
:100D90001943E1E7516B9943DEE700000020004072
:100DA00000E000E004ED00E00148006800470000BA
:100DB0008400002070B5C506ED0E012443B2AC409E
:100DC000002B01DB174D2C608007C00EFF258540EE
:100DD0008907090E8140002B08DB9E081248B600E7
:100DE00030180668AE430E4306600AE01807000F8D
:100DF000083886080D48B6003018C669AE430E4361
:100E0000C661012A08D0002B05DB09480460BFF346
:100E10004F8FBFF36F8F70BD002BFCDB0448803811
:100E2000046070BD80E200E000E400E000ED00E05E
:100E300080E100E07047034610B50020024604E060
:100E40009C5C2018521CC0B2D2B28A42F8D310BDAA
:100E500010B50321084600F027F8094C002803D1FB
:100E6000207D0121084320750221032000F01CF899
:100E7000002803D1207D02210843207510BD000009
:100E800090000020820104481018026901238B4061
:100E90009A43026100207047000E024000B5012312
:100EA00000F036FC002000BD034A80018018406835
:100EB000C840C007C00F7047000D024010B504497C
:100EC000EF2208691040086100F038FA10BD0000F8
:100ED000800E0240F0B504461F480F46016A1D46C9
:100EE0001646C2031143016200223946204600F033
:100EF00039F8A001BA00194B00218218D2181160EC
:100F000017490124BC4040180168002E01D021433C
:100F100000E0A143016007990029C16901D0214384
:100F200000E0A143C161016A002D01D0214300E02E
:100F3000A143016205990029416A01D0214300E0E3
:100F4000A143416206990029C16A01D0214300E012
:100F5000A143C1620020F0BD00200040000C02400F
:100F6000000D024010B50123064C8B408001001992
:100F7000C168002A01D0194300E09943C1600020F4
:100F800010BD0000000D024010B5002A01D0012361
:100F900000E000230122064C8A408001001981688C
:100FA000002B01D0114300E09143816010BD00008F
:100FB000000D024008B5002000900028FDD008BDBB
:100FC00010B50020FFF77AFF10BD10B50120FFF724
:100FD00075FF10BD10B50220FFF770FF10BD10B5F2
:100FE0000320FFF76BFF10BD10B5002000F06FFA73
:100FF00010BD10B5012000F06AFA10BD10B5002038
:10100000C046C04610BD10B50020C046C04610BD49
:1010100010B50020C046C04610BD10B5002000F03D
:10102000B7F910BD10B5012000F0B2F910BD10B530
:10103000022000F0ADF910BD10B50020C046C0463A
:1010400010BD10B50420C046C04610BD10B5052027
:10105000C046C04610BD10B50620C046C04610BDF3
:1010600010B50020C046C04610BD10B5002000F0ED
:1010700005FB10BD10B50020C046C04610BD10B520
:101080000020C046C04610BD10B50020C046C04676
:1010900010BD10B50120C046C04610BD10B50020DF
:1010A000C046C04610BD10B50020FFF77DFE10BD44
:1010B00010B50020C046C04610BD10B50122032166
:1010C000002000F02AFC00F0B9FB10BD0021002830
:1010D00005D001E04008491C0128FBD808467047AC
:1010E00010B504460C21FFF7A6FE217B814220D1DA
:1010F0002078FB281DD13221032000F03BFC6078D2
:10110000012816D10B48A1784173E17881732179C8
:10111000C17361790174A1794174E1798174217A93
:10112000C174617A0175A17A4175E17A81750121F5
:10113000C17610BDF0000020FEB5002024490090CB
:101140000190C87E00282FD008466038067D6030A8
:10115000C27B1023EF251F24407C002E02D0012EDD
:1011600023D01CE04F7B6E463770897B717011076E
:10117000090FB170400625E0B1703046012100F042
:1011800028FC69460878C04308704878C043487016
:10119000887884438C700021684600F01AFC0C4863
:1011A0000321173800F05BFBFEBD097C12090E011C
:1011B00032436E4632700909020111437170010910
:1011C000B1700006002801DA1943D5E72940D3E7BA
:1011D000F000002000B5034800683221C0B200F0E2
:1011E000E7F800BD0001004010B5FFF7CFFB014953
:1011F000086010BD000000201CB50220FFF784FC31
:1012000001210020FFF74AFBFFF7EEFF08216846A7
:1012100000F0EBFA012069464870034801906846E7
:10122000FFF77CFD1CBD0000FFFFFF000EB5012293
:101230000521022000F071FB01220621022000F0AE
:101240006CFB002000900190012302901A460421BB
:101250000220FFF73FFE04210220FFF713FE0422C5
:1012600011460220FFF71AFE012203210220FFF798
:10127000A1FD0EBD10B51A4C6068401C6060A168ED
:10128000491CA160A278002A12D02178884204D398
:10129000CB1C984201D2002206E08918491D8142E8
:1012A00006D8F02804D8012205210220FFF76CFEA1
:1012B000E278002A13D06178A068884204D1CB1C60
:1012C000984201D2002206E08918491D814206D1C8
:1012D000F02804D8012206210220FFF755FE10BD98
:1012E0004400002010B51348D023027D0024124989
:1012F0006030002A08D0012A13D1427D002A13D081
:101300009A1A52008A7010E0C27C002A03D09A1AFE
:1013100052008A7000E08C70007D07E0181A4000CF
:10132000C87010BDCC7010BD8C70807D0028F9D0C5
:10133000F4E70000900000204400002010B50B49A5
:101340000020FFF77FF9012205210220FFF71CFE94
:10135000012206210220FFF717FE05480021416007
:1013600081601E2000F04AFA10BD0000E1FF00007D
:101370004400002010B5054CA078212805D300F0CA
:1013800097FB00F073F90020A07010BD90000020C2
:101390000649002805D0012805D0022805D1886813
:1013A00000470868FCE74868FAE7704750000020EB
:1013B00010B500290FD0084A491E947D13461733F3
:1013C000E054907D0023884202DA401C907500E0D2
:1013D00093750248037010BD90000020400000206B
:1013E00010B509490878401CC0B20870052809D317
:1013F000064CA07D002803D020461730FFF770FE72
:101400000020A07510BD00004000002090000020CA
:101410007047000010B50024084A214614234B43AE
:10142000D358834203D1142041438C1803E0491C54
:10143000C9B20229F2D3204610BD00005C00002092
:1014400010B50C46FFF7E6FF002805D0002C05D0AC
:10145000012C07D0022C0CD0042010BD406841693B
:10146000042209E0406841694908490041610020BF
:1014700010BD4068416902229143F7E710B50C4660
:10148000FFF7C8FF002809D0406841681022914347
:10149000E207D20E11434160002010BD042010BDB0
:1014A00010B50C46FFF7B6FF002803D0002C03D080
:1014B000012C05D0042010BD40684168022202E0E2
:1014C00040684168012211434160002010BD70B5A1
:1014D0000546FFF79FFF040020D0606801694907B7
:1014E00005D500212846FFF7ABFFE06813E000694F
:1014F000C00707D001212846FFF7A2FF2069002876
:1015000000D0804760680069800707D5022128461F
:10151000FFF796FFA068002800D0804770BD00004C
:1015200070B50C460646FFF775FF050030D0002C5D
:101530002ED02178304600F068F86168002902D08A
:10154000304600F074F8A068002807D04068E860D2
:10155000A06880682861A0680068A860217BB61D2B
:1015600074B2E0060125C00E85400129204611D045
:1015700000F00CF90321204600F014F9002C05DBE3
:101580000A480560BFF34F8FBFF36F8F002070BD17
:10159000042070BD00F0FAF80321204600F002F9A3
:1015A000002CF3DB014880380560EFE780E100E0C4
:1015B00070B514460E460025FFF72CFF002815D005
:1015C000002C13D040684168012252029143627896
:1015D000D207920D114341602278002A13D0012ACC
:1015E00006D0022A0FD0032A0DD101E0002070BDE1
:1015F000606841016078401C7043FEF7E0FD012106
:101600000904081A85B2284670BD10B50C46FFF7CC
:1016100001FF002809D040684168C0229143A20719
:10162000120E11434160002010BD042010BD10B502
:101630000C46FFF7EFFE00280ED0002C14D04168B6
:101640004A6820239A432378DB079B0E1A434A609B
:101650002178012902D007E0042010BD426861789A
:1016600091604068A178C160002010BD02481E2131
:101670000160E12101607047800C004010B5064810
:101680004068000606D500F02DF8044800680028E0
:1016900000D0804710BD0000800C00408800002072
:1016A00010B50346007800F027F85868002801D0EC
:1016B0000A4908600A484168202291435A78D207B3
:1016C000920E114341605878002804D00122032172
:1016D0001620FFF76FFB002010BD000088000020DF
:1016E000800C004003481E210160E12101600020C0
:1016F00070470000800C004004494A680007120946
:101700001201000F02434A6070470000800C004045
:1017100070B5D5070124154E8C4080018019002D2D
:1017200006D0016B002B01D0214300E0A1430163EF
:10173000910706D5416B002B01D0214300E0A14366
:101740004163510706D5816B002B01D0214300E096
:10175000A1438163110706D5C16B002B01D0214342
:1017600000E0A143C163002070BD0000000D0240F5
:1017700030B47446641E2578641CAB4200D21D460A
:10178000635D5B00E31830BC18470000002805DBF0
:10179000C106C90E01208840014908607047000059
:1017A00080E200E08307FF22DB0E9A408907090EE2
:1017B0009940002808DB830809489B001818036833
:1017C00093430B43036070470007000F08388308FA
:1017D00004489B001818C36993430B43C3617047C7
:1017E00000E400E000ED00E07047002805D0002292
:1017F000491E02D30270401CFAE77047F8B5012376
:1018000002240525062616E000226F463A703B703A
:101810003C7003213970042139703D703E700721FE
:1018200039703A703B703C7003223A7004223A706F
:101830003D703E703970401EE6D2F8BD10B50122F1
:101840000321022000F069F801220421104600F073
:1018500064F801220521104600F05FF810BDF3B5D1
:101860000F4681B0002204210120FFF78DFB0120EB
:10187000FFF7C4FF002626E001980024855D0022C2
:1018800003210220FFF780FB0120FFF7B7FF2806A6
:1018900001D5012200E0002205210120FFF774FBA1
:1018A0000120FFF7ABFF012203210220FFF76CFBB1
:1018B0000120FFF7A3FF6806641C050EE4B2082CA4
:1018C000DDD3761CF6B2BE42D6D30120FFF796FFD9
:1018D000012204211046FFF757FB0120FFF78EFF7E
:1018E000002204210120FFF74FFBFEBD10B50220AE
:1018F000FEF742FD00F0C8F8FFF7DFFB00F0B6F896
:1019000000F02BF800F09CF8FFF7A2FAFFF78EFC2E
:101910003221032000F02EF810BD3EB50023022A2C
:101920000BD00124032A0BD0002A11D0012A0ED19A
:10193000009301931A46029307E00093019301E09C
:1019400001940093029300230122FFF7C3FA3EBDE6
:101950000093029301940123F6E710B503210022BE
:101960000846FFF7DAFF002202210320FFF7D5FF28
:1019700010BD0000034A1378002B02D14000107004
:10198000916070470400002010B50E4C20780028AC
:1019900017D06068401C6060A168884211D30321A1
:1019A0000020FFF781FA002801D0002200E0012288
:1019B00003210020FFF7E8FA2078401E2070002065
:1019C000606010BD04000020FFF790FFFFF7D2FC1D
:1019D000FCE7F3B5002501270024EE000098394606
:1019E000405DA140084205D03019401CC0B20199A9
:1019F00000F00AF8641CE4B2082CEFD36D1CEDB2C1
:101A0000032DE9D3FCBD000010B5002810D0182824
:101A10000ED8094C2246183A131820182038203BBB
:101A2000064AC07F0029815CDB7F02D019438154C4
:101A300010BD9943FBE7000028000020D9000020DA
:101A400008B5002069460870012048708870684613
:101A5000FEF7F0FF01211C20FFF740F801210820CC
:101A6000FFF73CF81E20FEF7CFFC08BD10B50122A1
:101A700004210320FFF751FFFEF7F8FC00220421A8
:101A80000320FFF781FA10BD1CB508216846FFF757
:101A9000ACFE0B20694608700020487001210F2021
:101AA000FFF71CF86846FFF7FBFDFFF71BFE1CBDA8
:101AB00070B51C4D00242868002802D0FFF790FC68
:101AC0002C607D216868C900884202D3FFF7A0FC22
:101AD0006C60A868002802D0FFF756FFAC60E86889
:101AE000642804D3FFF728FBFFF7FCFBEC600E48EB
:101AF0002969814200D32C616969814200D36C61FC
:101B0000A969814200D3AC61E969814200D3EC61EB
:101B1000296A814200D32C62696A814200D36C62D7
:101B200070BD00000C01002050C30000134A116872
:101B3000491C1160814220D311480168491C016091
:101B40004168491C41608168491C8160C168491C29
:101B5000C1600169491C01614169491C4161816998
:101B6000491C8161C169491CC161016A491C01624A
:101B7000416A491C41620020106070478C000020BF
:101B80000C0100200080000000960000AC1B00004B
:101B90000000002090000000040100003C1C000038
:101BA00090000020080B00002001000000093D000B
:101BB0000000000000000000000000000180402044
:101BC000100804018040201008044020100804027E
:101BD000020180020202020202020201010101016D
:101BE00001010000000000000200000100000000F0
:101BF00002020000000000000000000000000000E1
:101C00000000000000000000000000000000004094
:101C100000000000000000000000000001000000C3
:101C20000001004000000000000000000000000073
:0C1C3000000000000000000000000000A8
:04000005000000C136
:00000001FF
